{
  "contractName": "Payment",
  "abi": [
    {
      "inputs": [],
      "stateMutability": "nonpayable",
      "type": "constructor"
    },
    {
      "inputs": [
        {
          "internalType": "uint256",
          "name": "user_id",
          "type": "uint256"
        },
        {
          "internalType": "string",
          "name": "user_name",
          "type": "string"
        }
      ],
      "name": "registerUser",
      "outputs": [],
      "stateMutability": "nonpayable",
      "type": "function"
    },
    {
      "inputs": [
        {
          "internalType": "uint256",
          "name": "user_id_1",
          "type": "uint256"
        },
        {
          "internalType": "uint256",
          "name": "user_id_2",
          "type": "uint256"
        },
        {
          "internalType": "uint256",
          "name": "amount",
          "type": "uint256"
        }
      ],
      "name": "createAccount",
      "outputs": [],
      "stateMutability": "nonpayable",
      "type": "function"
    },
    {
      "inputs": [
        {
          "internalType": "uint256[]",
          "name": "id_path",
          "type": "uint256[]"
        },
        {
          "internalType": "uint256",
          "name": "amount",
          "type": "uint256"
        }
      ],
      "name": "sendAmount",
      "outputs": [],
      "stateMutability": "nonpayable",
      "type": "function"
    },
    {
      "inputs": [
        {
          "internalType": "uint256",
          "name": "user_id_1",
          "type": "uint256"
        },
        {
          "internalType": "uint256",
          "name": "user_id_2",
          "type": "uint256"
        }
      ],
      "name": "closeAccount",
      "outputs": [],
      "stateMutability": "nonpayable",
      "type": "function"
    },
    {
      "inputs": [],
      "name": "getLastSuccessCode",
      "outputs": [
        {
          "internalType": "bool",
          "name": "",
          "type": "bool"
        }
      ],
      "stateMutability": "view",
      "type": "function",
      "constant": true
    },
    {
      "inputs": [],
      "name": "resetAll",
      "outputs": [],
      "stateMutability": "nonpayable",
      "type": "function"
    }
  ],
  "bytecode": "0x608060405234801561001057600080fd5b506000808190555060006001819055506000600260006101000a81548160ff021916908315150217905550610f968061004a6000396000f3fe608060405234801561001057600080fd5b50600436106100625760003560e01c80631c57333e146100675780632352a575146100835780634c1ed7f51461009f578063a3340523146100bb578063bd45d6eb146100d9578063e103aef5146100f5575b600080fd5b610081600480360381019061007c9190610942565b6100ff565b005b61009d600480360381019061009891906109fe565b6101cd565b005b6100b960048036038101906100b49190610a5e565b6101f6565b005b6100c3610253565b6040516100d09190610acc565b60405180910390f35b6100f360048036038101906100ee9190610ae7565b61026a565b005b6100fd610312565b005b60c860005410610129576000600260006101000a81548160ff0219169083151502179055506101c9565b604051806040016040528083815260200182815250600360005460c8811061015457610153610b27565b5b600202016000820151816000015560208201518160010190816101779190610d6d565b509050506000546111336000848152602001908152602001600020819055506000808154809291906101a890610e6e565b91905055506001600260006101000a81548160ff0219169083151502179055505b5050565b6101d883838361033e565b600260006101000a81548160ff021916908315150217905550505050565b60006111336000858152602001908152602001600020549050600061113360008581526020019081526020016000205490506102338282856104ca565b600260006101000a81548160ff0219169083151502179055505050505050565b6000600260009054906101000a900460ff16905090565b600061113360008481526020019081526020016000205490506000611133600084815260200190815260200160002054905060006102a88383610599565b90506000610193826107d081106102c2576102c1610b27565b5b60020201600001819055506000610193826107d081106102e5576102e4610b27565b5b60020201600101819055506001600260006101000a81548160ff0219169083151502179055505050505050565b6000808190555060006001819055506000600260006101000a81548160ff021916908315150217905550565b600080600090505b848490506001826103579190610eb6565b1015610400576000611133600087878581811061037757610376610b27565b5b9050602002013581526020019081526020016000205490506000611133600088886001876103a59190610eb6565b8181106103b5576103b4610b27565b5b9050602002013581526020019081526020016000205490506103d88282876105ea565b6103e857600093505050506104c3565b809150505080806103f890610e6e565b915050610346565b5060005b848490506001826104159190610eb6565b10156104bd576000611133600087878581811061043557610434610b27565b5b9050602002013581526020019081526020016000205490506000611133600088886001876104639190610eb6565b81811061047357610472610b27565b5b9050602002013581526020019081526020016000205490506000610498838388610656565b9050806104a457600080fd5b81925050505080806104b590610e6e565b915050610404565b50600190505b9392505050565b60006107d0600154106104e05760009050610592565b828411156104f5576000839050849350809450505b6000838560c86105059190610eea565b61050f9190610eb6565b90506001546111346000838152602001908152602001600020819055506040518060400160405280848152602001848152506101936001546107d0811061055957610558610b27565b5b6002020160008201518160000155602082015181600101559050506001600081548092919061058790610e6e565b919050555060019150505b9392505050565b6000818311156105b0576000829050839250809350505b6000828460c86105c09190610eea565b6105ca9190610eb6565b905061113460008281526020019081526020016000205491505092915050565b6000806105f78585610599565b90508385111561062a5782610193826107d0811061061857610617610b27565b5b6002020160010154101591505061064f565b82610193826107d0811061064157610640610b27565b5b600202016000015410159150505b9392505050565b6000806106638585610599565b90508385111561070e5782610193826107d0811061068457610683610b27565b5b6002020160010154101561069c5760009150506107ab565b82610193826107d081106106b3576106b2610b27565b5b6002020160000160008282546106c99190610eb6565b9250508190555082610193826107d081106106e7576106e6610b27565b5b6002020160010160008282546106fd9190610f2c565b9250508190555060019150506107ab565b82610193826107d0811061072557610724610b27565b5b6002020160000154101561073d5760009150506107ab565b82610193826107d0811061075457610753610b27565b5b60020201600101600082825461076a9190610eb6565b9250508190555082610193826107d0811061078857610787610b27565b5b60020201600001600082825461079e9190610f2c565b9250508190555060019150505b9392505050565b6000604051905090565b600080fd5b600080fd5b6000819050919050565b6107d9816107c6565b81146107e457600080fd5b50565b6000813590506107f6816107d0565b92915050565b600080fd5b600080fd5b6000601f19601f8301169050919050565b7f4e487b7100000000000000000000000000000000000000000000000000000000600052604160045260246000fd5b61084f82610806565b810181811067ffffffffffffffff8211171561086e5761086d610817565b5b80604052505050565b60006108816107b2565b905061088d8282610846565b919050565b600067ffffffffffffffff8211156108ad576108ac610817565b5b6108b682610806565b9050602081019050919050565b82818337600083830152505050565b60006108e56108e084610892565b610877565b90508281526020810184848401111561090157610900610801565b5b61090c8482856108c3565b509392505050565b600082601f830112610929576109286107fc565b5b81356109398482602086016108d2565b91505092915050565b60008060408385031215610959576109586107bc565b5b6000610967858286016107e7565b925050602083013567ffffffffffffffff811115610988576109876107c1565b5b61099485828601610914565b9150509250929050565b600080fd5b600080fd5b60008083601f8401126109be576109bd6107fc565b5b8235905067ffffffffffffffff8111156109db576109da61099e565b5b6020830191508360208202830111156109f7576109f66109a3565b5b9250929050565b600080600060408486031215610a1757610a166107bc565b5b600084013567ffffffffffffffff811115610a3557610a346107c1565b5b610a41868287016109a8565b93509350506020610a54868287016107e7565b9150509250925092565b600080600060608486031215610a7757610a766107bc565b5b6000610a85868287016107e7565b9350506020610a96868287016107e7565b9250506040610aa7868287016107e7565b9150509250925092565b60008115159050919050565b610ac681610ab1565b82525050565b6000602082019050610ae16000830184610abd565b92915050565b60008060408385031215610afe57610afd6107bc565b5b6000610b0c858286016107e7565b9250506020610b1d858286016107e7565b9150509250929050565b7f4e487b7100000000000000000000000000000000000000000000000000000000600052603260045260246000fd5b600081519050919050565b7f4e487b7100000000000000000000000000000000000000000000000000000000600052602260045260246000fd5b60006002820490506001821680610ba857607f821691505b602082108103610bbb57610bba610b61565b5b50919050565b60008190508160005260206000209050919050565b60006020601f8301049050919050565b600082821b905092915050565b600060088302610c237fffffffffffffffffffffffffffffffffffffffffffffffffffffffffffffffff82610be6565b610c2d8683610be6565b95508019841693508086168417925050509392505050565b6000819050919050565b6000610c6a610c65610c60846107c6565b610c45565b6107c6565b9050919050565b6000819050919050565b610c8483610c4f565b610c98610c9082610c71565b848454610bf3565b825550505050565b600090565b610cad610ca0565b610cb8818484610c7b565b505050565b5b81811015610cdc57610cd1600082610ca5565b600181019050610cbe565b5050565b601f821115610d2157610cf281610bc1565b610cfb84610bd6565b81016020851015610d0a578190505b610d1e610d1685610bd6565b830182610cbd565b50505b505050565b600082821c905092915050565b6000610d4460001984600802610d26565b1980831691505092915050565b6000610d5d8383610d33565b9150826002028217905092915050565b610d7682610b56565b67ffffffffffffffff811115610d8f57610d8e610817565b5b610d998254610b90565b610da4828285610ce0565b600060209050601f831160018114610dd75760008415610dc5578287015190505b610dcf8582610d51565b865550610e37565b601f198416610de586610bc1565b60005b82811015610e0d57848901518255600182019150602085019450602081019050610de8565b86831015610e2a5784890151610e26601f891682610d33565b8355505b6001600288020188555050505b505050505050565b7f4e487b7100000000000000000000000000000000000000000000000000000000600052601160045260246000fd5b6000610e79826107c6565b91507fffffffffffffffffffffffffffffffffffffffffffffffffffffffffffffffff8203610eab57610eaa610e3f565b5b600182019050919050565b6000610ec1826107c6565b9150610ecc836107c6565b9250828201905080821115610ee457610ee3610e3f565b5b92915050565b6000610ef5826107c6565b9150610f00836107c6565b9250828202610f0e816107c6565b91508282048414831517610f2557610f24610e3f565b5b5092915050565b6000610f37826107c6565b9150610f42836107c6565b9250828203905081811115610f5a57610f59610e3f565b5b9291505056fea2646970667358221220f4d47fb98c1fd57a6b6c7e2ddffb3c1b33f33794779b23aa775aa0938561822964736f6c63430008130033",
  "immutableReferences": {},
  "source": "// SPDX-License-Identifier: MIT\npragma solidity >=0.4.22 <0.9.0;\n\ncontract Payment {\n    uint constant MAX_USERS = 200;\n    uint constant MAX_JOINT_ACCOUNTS = 2000;\n    uint num_users;\n    uint num_joint_accounts;\n\n    struct User {\n        uint user_id;\n        string user_name;\n    }\n\n    struct JointAccount {\n        // The lower user_idx is assigned position 1\n        uint contribution_1;\n        uint contribution_2;\n    }\n\n    // Allows us to see if our last request succeeded\n    bool last_success_code;\n\n    // Using non-dynamic arrays is much cheaper \n    User[MAX_USERS] users;\n    JointAccount[MAX_JOINT_ACCOUNTS] joint_accounts;\n    mapping(uint => uint) user_id_to_idx;\n    mapping(uint => uint) user_idxes_to_account;\n\n    function addJointAcount(uint user_idx_1, uint user_idx_2, \n        uint amount) private returns (bool) {\n        // Add a joint account between users with indices @user_idx_1 and \n        // @user_idx_2, with initial contribution @amount each. \n        if (num_joint_accounts >= MAX_JOINT_ACCOUNTS) {\n            return false;\n        }\n        if (user_idx_1 > user_idx_2) {\n            uint tmp = user_idx_2;\n            user_idx_2 = user_idx_1;\n            user_idx_1 = tmp;\n        }\n        uint hash_value = MAX_USERS*(user_idx_1) + user_idx_2;\n        user_idxes_to_account[hash_value] = num_joint_accounts;\n        joint_accounts[num_joint_accounts] = JointAccount(amount, amount);\n        num_joint_accounts++;\n\n        return true;\n    }\n\n    function getJointAccountIdx(uint user_idx_1, uint user_idx_2) private view\n        returns (uint) {\n        // Map the two user indices to the index for their joint account\n        if (user_idx_1 > user_idx_2) {\n            uint tmp = user_idx_2;\n            user_idx_2 = user_idx_1;\n            user_idx_1 = tmp;\n        }\n        uint hash_value = MAX_USERS*(user_idx_1) + user_idx_2;\n        return user_idxes_to_account[hash_value];\n    }\n\n    function jointAccountHasEnoughFunds(uint user_idx_1, uint user_idx_2, \n        uint amount) private view returns (bool) {\n        // Check if the joint account between users with indices \n        // @user_idx_1 and @user_idx_2 has sufficient funds for the former\n        // to transfer @amount coins to the latter.\n        uint idx;\n        idx = getJointAccountIdx(user_idx_1, user_idx_2);\n        if (user_idx_1 > user_idx_2) {\n            return joint_accounts[idx].contribution_2 >= amount;\n        } else {\n            return joint_accounts[idx].contribution_1 >= amount;\n        }\n    }\n\n    function transferFundsInJointAccount(uint user_idx_1, uint user_idx_2, \n        uint amount) private returns (bool) {\n        // Transfer @amount coins from the user with index @user_idx_1 to \n        // the user with index @user_idx_2 in their joint account.\n        uint idx;\n        idx = getJointAccountIdx(user_idx_1, user_idx_2);\n        if (user_idx_1 > user_idx_2) {\n            if (joint_accounts[idx].contribution_2 < amount) {\n                return false;\n            } else {\n                joint_accounts[idx].contribution_1 += amount;\n                joint_accounts[idx].contribution_2 -= amount;\n                return true;\n            }\n        } else {\n            if (joint_accounts[idx].contribution_1 < amount) {\n                return false;\n            } else {\n                joint_accounts[idx].contribution_2 += amount;\n                joint_accounts[idx].contribution_1 -= amount;\n                return true;\n            }\n        }\n    }\n\n    function transferFundsAlongPath(uint[] calldata id_list, uint amount) private \n        returns (bool) {\n        // Transfer @amount coins from one user to the next on the path defined\n        // by the sequence of user IDs @id_list.\n        for (uint i = 0; i+1 < id_list.length; i++) {\n            uint cur = user_id_to_idx[id_list[i]];\n            uint nxt = user_id_to_idx[id_list[i+1]];\n            if (!jointAccountHasEnoughFunds(cur, nxt, amount)) {\n                return false;\n            }\n            cur = nxt;\n        }\n        for (uint i = 0; i+1 < id_list.length; i++) {\n            uint cur = user_id_to_idx[id_list[i]];\n            uint nxt = user_id_to_idx[id_list[i+1]];\n            bool xfr_success = transferFundsInJointAccount(cur, nxt, amount);\n            require(xfr_success);\n            cur = nxt;\n        }\n        return true;\n    }\n\n    function registerUser(uint user_id, string memory user_name) public {\n        // Register a new user with user ID @user_id and username @user_name.\n        if (num_users >= MAX_USERS) {\n            last_success_code = false;\n        } else {\n            users[num_users] = User(user_id, user_name);\n            user_id_to_idx[user_id] = num_users;\n            num_users++;\n            last_success_code = true;\n        }\n    }\n\n    function createAccount(uint user_id_1, uint user_id_2, uint amount) public {\n        // Add a joint account between users with IDs @user_id_1 and @user_id_2,\n        // with initial contribution @amount each.\n        uint user_idx_1 = user_id_to_idx[user_id_1];\n        uint user_idx_2 = user_id_to_idx[user_id_2];\n\n        last_success_code = addJointAcount(user_idx_1, user_idx_2, amount);\n    }\n\n    function sendAmount(uint[] calldata id_path, uint amount) public {\n        // Transfer @amount coins from one user to the next on the path defined\n        // by the sequence of user IDs @id_list.\n        last_success_code = transferFundsAlongPath(id_path, amount);\n    }\n\n    function closeAccount(uint user_id_1, uint user_id_2) public {\n        // Instead of actually closing the account, just set the balances to 0.\n        uint user_idx_1 = user_id_to_idx[user_id_1];\n        uint user_idx_2 = user_id_to_idx[user_id_2];\n        uint account_idx = getJointAccountIdx(user_idx_1, user_idx_2);\n        joint_accounts[account_idx].contribution_1 = 0;\n        joint_accounts[account_idx].contribution_2 = 0;\n        last_success_code = true;\n    }\n\n    function getLastSuccessCode() public view returns (bool) {\n        // Check if our last action succeeded\n        return last_success_code;\n    }\n\n    function resetAll() public {\n        // Reset everything to the initial state, i.e. no users and no accounts.\n        num_users = 0;\n        num_joint_accounts = 0;\n        last_success_code = false;\n    }\n\n    constructor() {\n        num_users = 0;\n        num_joint_accounts = 0;\n        last_success_code = false;\n    }\n}\n",
  "sourcePath": "/home/adithya/sem8/blockchains/A3/contracts/Payment.sol",
  "compiler": {
    "name": "solc",
    "version": "0.8.19+commit.7dd6d404.Emscripten.clang"
  },
  "schemaVersion": "3.4.13",
  "updatedAt": "2023-04-05T10:02:02.724Z",
  "networkType": "ethereum",
  "devdoc": {
    "kind": "dev",
    "methods": {},
    "version": 1
  },
  "userdoc": {
    "kind": "user",
    "methods": {},
    "version": 1
  }
}